:1000000012C019C018C017C016C015C014C013C044
:1000100012C011C010C00FC00EC00DC00CC00BC06C
:100020000AC009C008C011241FBECFE5D4E0DEBF5E
:10003000CDBF0ED035C0E4CF10BC87E689B988E1CA
:100040008AB986E880BD08955D9BFECF8CB908957E
:1000500010BC87E689B988E18AB986E880BDA8E442
:1000600075E64CE66FE65AE020E931E05D9BFECF95
:10007000ACB95D9BFECF7CB95D9BFECF4CB95D9B5F
:10008000FECF4CB95D9BFECF6CB95D9BFECF5CB9DA
:1000900080E197E2F9013197F1F70197D9F7E6CFBF
:0400A000F894FFCF02
:00000001FF
