:1000000012C019C018C017C016C015C014C013C044
:1000100012C011C010C00FC00EC00DC00CC00BC06C
:100020000AC009C008C011241FBECFE5D4E0DEBF5E
:10003000CDBF2BD048C0E4CF8FB583688FBD8EB5C0
:100040008A608EBDB99A089582E390E020EA3FE08D
:100050009BBD8ABDF9013197F1F701974FEF8F3FB3
:100060009407B1F7089580E090E020EA3FE09BBD5F
:100070008ABDF9013197F1F7019683339105B9F7FC
:10008000089590E09BBD8ABD0895D6DF80E090E0A2
:1000900020EA3FE006C09BBD8ABDF9013197F1F728
:1000A000019683339105BCF382E390E09BBD8ABD4A
:1000B000F9013197F1F701974FEF8F3F9407B1F7AF
:0A00C00080E090E0EECFF894FFCF4F
:00000001FF
