:1000000012C024C023C022C021C020C01FC01EC0F7
:100010001DC01CC01BC01AC019C018C017C016C014
:1000200015C014C013C011241FBECFE5D4E0DEBF3D
:10003000CDBF10E0A0E6B0E0E2E8F0E002C005903D
:100040000D92AA36B107D9F702D019C0D9CF8FEFD8
:1000500087BB20E040E951E0E22FF0E0E05AFF4F9B
:100060008081809588BB84EF91E0FA013197F1F7A8
:100070000197D9F72F5F2A3078F320E0EDCFF8947D
:02008000FFCFB0
:0A008200FC60DAF266B6BEE0FEF69E
:00000001FF
