:1000000012C02CC02BC02AC029C028C027C026C0BF
:1000100025C024C023C022C021C020C01FC01EC0D4
:100020001DC01CC01BC011241FBECFE5D4E0DEBF25
:10003000CDBF10E0A0E6B0E0E8E4F2E002C0059039
:100040000D92AA36B107D9F710E0AAE6B0E001C0D8
:100050001D92AD36B107E1F7C7D0F4C0D1CF92B34E
:1000600021E030E002C0220F331F8A95E2F7422FD1
:100070004095942392BB81B3822B81BB80E897E0AB
:100080000197F1F781B3482341BB80E191E00197EB
:10009000F1F780B3E8E9F6E03197F1F782230895AC
:1000A00021E030E002C0220F331F8A95E2F7622F71
:1000B000722F709550E040E0BAE0A5E1E8EFF0E083
:1000C00081B3862B81BB8B2F8A95F1F781B3872370
:1000D00081BB8A2F8A95F1F7469580B390E0822301
:1000E0009323892B09F04068CF010197F1F75F5FF7
:1000F000583031F7842F0895382F81E090E002C006
:10010000880F991F6A95E2F7982F482F409520E0B5
:100110005AE068EF70E081B3892B81BB852F8A9507
:10012000F1F730FF03C081B3842302C081B3892B70
:1001300081BBFB013197F1F781B3842381BB852F0C
:100140008A95F1F72F5F283011F03695E4CF0895A6
:10015000FF920F931F93DF93CF9300D00F92CDB7F1
:10016000DEB7182F7CDF8CEC612FC6DF84E4612FB3
:10017000C3DF88EC90E020E931E0F9013197F1F735
:100180000197D9F7812F6BDFF82E8CEC612FB4DF4C
:100190008EEB612FB1DF812F83DF082F812F80DF6E
:1001A000782F83FD02C081E00FC0982F80E0202FC0
:1001B00030E0822B932B909581959F4F082F892FAC
:1001C000990F990B782F80E07295707702950F70D8
:1001D000702B6F2D90E00F900F900F90CF91DF91CB
:1001E0001F910F91FF900895FF920F931F93DF933C
:1001F000CF9300D00F92CDB7DEB78A98929A8FEF47
:1002000087BB8E010F5F1F4F39E0F32E83E0A0DF25
:1002100069837A838B83AAE6B0E0F80183E00190DA
:100220000D928150E1F780916A00882311F0F8BAAD
:10023000EDCFE0916B00F0E0E05AFF4F80818095B8
:0802400088BBE4CFF894FFCF66
:0A024800FC60DAF266B6BEE0FEF6D6
:00000001FF
