:1000000012C024C023C022C021C020C01FC01EC0F7
:100010001DC01CC01BC01AC019C018C017C016C014
:1000200015C014C013C011241FBECFE5D4E0DEBF3D
:10003000CDBF10E0A0E6B0E0E4E4F8E002C0059037
:100040000D92AA36B107D9F71CD1FAC3D9CFA89817
:10005000A09A80EA8A95F1F7A09884E18A95F1F751
:1000600083B39CE89A95F1F7809581700895A898DC
:10007000A09A91E09A95F1F78111A09884E18A9570
:10008000F1F7A0980895A898A09A81E08A95F1F7D1
:10009000A09884E08A95F1F783B39FE09A95F1F7F1
:1000A00081700895A898A09A91E09A95F1F780FD43
:1000B000A09894E19A95F1F7A0988695A898A09AAF
:1000C00091E09A95F1F780FDA09894E19A95F1F767
:1000D000A0988695A898A09A91E09A95F1F780FD4E
:1000E000A09894E19A95F1F7A0988695A898A09A7F
:1000F00091E09A95F1F780FDA09894E19A95F1F737
:10010000A0988695A898A09A91E09A95F1F780FD1D
:10011000A09894E19A95F1F7A0988695A898A09A4E
:1001200091E09A95F1F780FDA09894E19A95F1F706
:10013000A0988695A898A09A91E09A95F1F780FDED
:10014000A09894E19A95F1F7A098A898A09A91E0C8
:100150009A95F1F7827009F0A09884E18A95F1F7F9
:10016000A0980895A898A09A41E0842F8A95F1F765
:10017000A09834E0832F8A95F1F793B32FE0822F74
:100180008A95F1F7979599279795A898A09A842F23
:100190008A95F1F7A098832F8A95F1F783B3522FB0
:1001A0005A95F1F79695879588278795892BA89872
:1001B000A09A942F9A95F1F7A098932F9A95F1F71A
:1001C00093B3522F5A95F1F786959795992797955E
:1001D000982BA898A09A842F8A95F1F7A098832F3E
:1001E0008A95F1F783B3522F5A95F1F79695879533
:1001F00088278795892BA898A09A942F9A95F1F72C
:10020000A098932F9A95F1F793B3522F5A95F1F73F
:100210008695979599279795982BA898A09A842FBB
:100220008A95F1F7A098832F8A95F1F783B3522F1F
:100230005A95F1F79695879588278795892BA898E1
:10024000A09A942F9A95F1F7A098932F9A95F1F789
:1002500093B3522F5A95F1F78695979599279795CD
:10026000982BA898A09A4A95F1F7A0983A95F1F79B
:1002700083B32A95F1F79695879588278795892BDB
:100280000895DF92EF92FF920F931F93889A8FEF5A
:1002900087BB50EAE52E14E14CE8D42EB1E049E1E9
:1002A00050E004E03FE0F32E9098A898A09A8E2D9D
:1002B0008A95F1F7A098812F8A95F1F783B38D2D58
:1002C0008A95F1F7A898A09A8B2F8A95F1F7812F3C
:1002D0008A95F1F7A098A898A09A8B2F8A95F1F7A4
:1002E000812F8A95F1F7A098A898A09A8B2F8A95CC
:1002F000F1F7A098812F8A95F1F7A098A898A09A75
:100300008B2F8A95F1F7A098812F8A95F1F7A09805
:10031000A898A09A8B2F8A95F1F7812F8A95F1F7EB
:10032000A098A898A09A8B2F8A95F1F7812F8A958B
:10033000F1F7A098A898A09A8B2F8A95F1F7A0982A
:10034000812F8A95F1F7A098A898A09A8B2F8A956B
:10035000F1F7A098812F8A95F1F7A098A898A09A14
:100360008B2F8A95F1F7812F8A95F1F7A098A8989D
:10037000A09A8B2F8A95F1F7812F8A95F1F7A09893
:10038000A898A09A8B2F8A95F1F7A098812F8A952B
:10039000F1F7A098A898A09A8B2F8A95F1F7812F52
:1003A0008A95F1F7A098A898A09A8B2F8A95F1F7D3
:1003B000812F8A95F1F7A098A898A09A8B2F8A95FB
:1003C000F1F7812F8A95F1F7A098A898A09A8B2F22
:1003D0008A95F1F7A098812F8A95F1F7A098A898AF
:1003E000A09A8B2F8A95F1F7812F8A95F1F7A09823
:1003F00020E030E0CA010197F1F72F5F3F4F8DE118
:100400002C343807B9F7A898A09A8E2D8A95F1F761
:10041000A098812F8A95F1F783B38D2D8A95F1F7F6
:10042000A898A09A8B2F8A95F1F7812F8A95F1F7DA
:10043000A098A898A09A8B2F8A95F1F7812F8A957A
:10044000F1F7A098A898A09A8B2F8A95F1F7A09819
:10045000812F8A95F1F7A098A898A09A8B2F8A955A
:10046000F1F7A098812F8A95F1F7A098A898A09A03
:100470008B2F8A95F1F7812F8A95F1F7A098A8988C
:10048000A09A8B2F8A95F1F7812F8A95F1F7A09882
:10049000A898A09A8B2F8A95F1F7A098812F8A951A
:1004A000F1F7A098A898A09A8B2F8A95F1F7A098B9
:1004B000812F8A95F1F7A098A898A09A8B2F8A95FA
:1004C000F1F7812F8A95F1F7A098A898A09A8B2F21
:1004D0008A95F1F7A098812F8A95F1F7A098A898AE
:1004E000A09A8B2F8A95F1F7A098812F8A95F1F722
:1004F000A098A898A09A8B2F8A95F1F7A098812FA1
:100500008A95F1F7A098A898A09A8B2F8A95F1F771
:10051000A098812F8A95F1F7A098A898A09A8B2F80
:100520008A95F1F7A098812F8A95F1F7A098A8985D
:10053000A09A8B2F8A95F1F7812F8A95F1F7A098D1
:10054000A898A09A8B2F8A95F1F7A098812F8A9569
:10055000F1F7A098A898A09A8B2F8A95F1F7A09808
:10056000802F8A95F1F793B38F2D8A95F1F79795A0
:1005700099279795A898A09A8B2F8A95F1F7A0981C
:10058000802F8A95F1F783B32F2D2A95F1F7969551
:10059000879588278795892BA898A09A9B2F9A954D
:1005A000F1F7A098902F9A95F1F793B32F2D2A95F4
:1005B000F1F78695979599279795982BA898A09AE3
:1005C0008B2F8A95F1F7A098802F8A95F1F783B346
:1005D0002F2D2A95F1F79695879588278795892B52
:1005E000A898A09A9B2F9A95F1F7A098902F9A958A
:1005F000F1F793B32F2D2A95F1F7869597959927C3
:100600009795982BA898A09A8B2F8A95F1F7A09888
:10061000802F8A95F1F783B32F2D2A95F1F79695C0
:10062000879588278795892BA898A09A9B2F9A95BC
:10063000F1F7A098902F9A95F1F793B32F2D2A9563
:10064000F1F78695979599279795982BA898A09A52
:100650008B2F8A95F1F7A098802F8A95F1F7A3B395
:100660008F2D8A95F1F79695A795AA27A795A92B7F
:10067000A898A09A8B2F8A95F1F7A098802F8A9539
:10068000F1F793B38F2D8A95F1F797959927979561
:10069000A898A09A8B2F8A95F1F7A098802F8A9519
:1006A000F1F783B32F2D2A95F1F796958795882733
:1006B0008795892BA898A09A9B2F9A95F1F7A098D7
:1006C000902F9A95F1F793B32F2D2A95F1F78695F0
:1006D000979599279795982BA898A09A8B2F8A95EC
:1006E000F1F7A098802F8A95F1F783B32F2D2A95E3
:1006F000F1F79695879588278795892BA898A09AD2
:100700009B2F9A95F1F7A098902F9A95F1F793B3B4
:100710002F2D2A95F1F78695979599279795982BE0
:10072000A898A09A8B2F8A95F1F7A098802F8A9588
:10073000F1F783B32F2D2A95F1F7969587958827A2
:100740008795892BA898A09A9B2F9A95F1F7A09846
:10075000902F9A95F1F723B39F2D9A95F1F78695EF
:10076000279522272795282BA898A09A8B2F8A9522
:10077000F1F7A098802F8A95F1F783B39F2D9A9572
:10078000F1F72695879588278795822BA898A09AB8
:100790009E2D9A95F1F7A098912F9A95F1F793B322
:1007A0009D2D9A95F1F7A295AF7090E087709070AB
:1007B00082959295907F9827807F9827A82B8A2FE3
:1007C0006AE025D0E82FFF27E7FDF095E05AFF4FBC
:1007D0008081809588BB20E030E0CA010197F1F765
:1007E0002F5F3F4F83E128383807B9F78A2F6AE037
:1007F0000ED0E92FFF27E7FDF095E05AFF4F8081EB
:10080000809588BBA5310CF44FCD909A4DCD87FBD8
:10081000082E062687FD819567FD619505D00EF4AB
:10082000919507FC81950895991B79E004C0991F63
:10083000961708F0961B881F7A95C9F7809508953A
:04084000F894FFCF5A
:0A084400FC60DAF266B6BEE0FEF6D4
:00000001FF
