:1000000012C024C023C022C021C020C01FC01EC0F7
:100010001DC01CC01BC01AC019C018C017C016C014
:1000200015C014C013C011241FBECFE5D4E0DEBF3D
:10003000CDBF10E0A0E6B0E0E4E3F8E002C0059038
:100040000D92AA36B107D9F71CD1F2C3D9CFA8981F
:10005000A09A80EA8A95F1F7A09884E18A95F1F751
:1000600083B39CE89A95F1F7809581700895A898DC
:10007000A09A91E09A95F1F78111A09884E18A9570
:10008000F1F7A0980895A898A09A81E08A95F1F7D1
:10009000A09884E08A95F1F783B39FE09A95F1F7F1
:1000A00081700895A898A09A91E09A95F1F780FD43
:1000B000A09894E19A95F1F7A0988695A898A09AAF
:1000C00091E09A95F1F780FDA09894E19A95F1F767
:1000D000A0988695A898A09A91E09A95F1F780FD4E
:1000E000A09894E19A95F1F7A0988695A898A09A7F
:1000F00091E09A95F1F780FDA09894E19A95F1F737
:10010000A0988695A898A09A91E09A95F1F780FD1D
:10011000A09894E19A95F1F7A0988695A898A09A4E
:1001200091E09A95F1F780FDA09894E19A95F1F706
:10013000A0988695A898A09A91E09A95F1F780FDED
:10014000A09894E19A95F1F7A098A898A09A91E0C8
:100150009A95F1F7827009F0A09884E18A95F1F7F9
:10016000A0980895A898A09A41E0842F8A95F1F765
:10017000A09834E0832F8A95F1F793B32FE0822F74
:100180008A95F1F7979599279795A898A09A842F23
:100190008A95F1F7A098832F8A95F1F783B3522FB0
:1001A0005A95F1F79695879588278795892BA89872
:1001B000A09A942F9A95F1F7A098932F9A95F1F71A
:1001C00093B3522F5A95F1F786959795992797955E
:1001D000982BA898A09A842F8A95F1F7A098832F3E
:1001E0008A95F1F783B3522F5A95F1F79695879533
:1001F00088278795892BA898A09A942F9A95F1F72C
:10020000A098932F9A95F1F793B3522F5A95F1F73F
:100210008695979599279795982BA898A09A842FBB
:100220008A95F1F7A098832F8A95F1F783B3522F1F
:100230005A95F1F79695879588278795892BA898E1
:10024000A09A942F9A95F1F7A098932F9A95F1F789
:1002500093B3522F5A95F1F78695979599279795CD
:10026000982BA898A09A4A95F1F7A0983A95F1F79B
:1002700083B32A95F1F79695879588278795892BDB
:100280000895AF92BF92CF92DF92EF92FF920F93B9
:100290001F93889A8FEF87BB50EAD52E54E14CE824
:1002A000C42E01E034E0B32E2FE0A22E11E094E042
:1002B000F92E8FE0E82EA9E1B0E0A898A09A8D2D44
:1002C0008A95F1F7A098852F8A95F1F783B38C2D45
:1002D0008A95F1F7A898A09A802F8A95F1F7852F33
:1002E0008A95F1F7A098A898A09A802F8A95F1F79F
:1002F000852F8A95F1F7A098A898A09A802F8A95C3
:10030000F1F7A098852F8A95F1F7A098A898A09A60
:10031000802F8A95F1F7A098852F8A95F1F7A098FC
:10032000A898A09A802F8A95F1F7852F8A95F1F7E2
:10033000A098A898A09A802F8A95F1F7852F8A9582
:10034000F1F7A098A898A09A802F8A95F1F7A09825
:10035000852F8A95F1F7A098A898A09A802F8A9562
:10036000F1F7A098852F8A95F1F7A098A898A09A00
:10037000802F8A95F1F7852F8A95F1F7A098A89894
:10038000A09A802F8A95F1F7852F8A95F1F7A0988A
:10039000A898A09A802F8A95F1F7A098852F8A9522
:1003A000F1F7A098A898A09A802F8A95F1F7852F49
:1003B0008A95F1F7A098A898A09A802F8A95F1F7CE
:1003C000852F8A95F1F7A098A898A09A802F8A95F2
:1003D000F1F7852F8A95F1F7A098A898A09A802F19
:1003E0008A95F1F7A098852F8A95F1F7A098A8989B
:1003F000A09A802F8A95F1F7852F8A95F1F7A0981A
:10040000A898A09A802F8A95F1F7A0988B2D8A95AD
:10041000F1F783B39A2D9A95F1F780FFF1CFA89861
:10042000A09A8D2D8A95F1F7A098852F8A95F1F7DE
:1004300083B38C2D8A95F1F7A898A09A812F8A957D
:10044000F1F7852F8A95F1F7A098A898A09A812FA7
:100450008A95F1F7852F8A95F1F7A098A898A09A28
:10046000812F8A95F1F7A098852F8A95F1F7A098AA
:10047000A898A09A812F8A95F1F7A098852F8A9540
:10048000F1F7A098A898A09A812F8A95F1F7852F67
:100490008A95F1F7A098A898A09A812F8A95F1F7EC
:1004A000852F8A95F1F7A098A898A09A812F8A9510
:1004B000F1F7A098852F8A95F1F7A098A898A09AAF
:1004C000812F8A95F1F7A098852F8A95F1F7A0984A
:1004D000A898A09A812F8A95F1F7852F8A95F1F730
:1004E000A098A898A09A812F8A95F1F7A098852FB7
:1004F0008A95F1F7A098A898A09A812F8A95F1F78C
:10050000A098852F8A95F1F7A098A898A09A812F96
:100510008A95F1F7A098852F8A95F1F7A098A89869
:10052000A09A812F8A95F1F7A098852F8A95F1F7E7
:10053000A098A898A09A812F8A95F1F7A098852F66
:100540008A95F1F7A098A898A09A812F8A95F1F73B
:10055000852F8A95F1F7A098A898A09A812F8A955F
:10056000F1F7A098852F8A95F1F7A098A898A09AFE
:10057000812F8A95F1F7A0988F2D8A95F1F793B383
:100580008E2D8A95F1F7979599279795A898A09A17
:10059000812F8A95F1F7A0988F2D8A95F1F783B373
:1005A0002E2D2A95F1F79695879588278795892B83
:1005B000A898A09A912F9A95F1F7A0989F2D9A95B7
:1005C000F1F793B32E2D2A95F1F7869597959927F4
:1005D0009795982BA898A09A812F8A95F1F7A098C3
:1005E0008F2D8A95F1F783B32E2D2A95F1F79695E5
:1005F000879588278795892BA898A09A912F9A95F7
:10060000F1F7A0989F2D9A95F1F793B32E2D2A9587
:10061000F1F78695979599279795982BA898A09A82
:10062000812F8A95F1F7A0988F2D8A95F1F783B3E2
:100630002E2D2A95F1F79695879588278795892BF2
:10064000A898A09A912F9A95F1F7A0989F2D9A9526
:10065000F1F793B32E2D2A95F1F786959795992763
:100660009795982BA898A09A812F8A95F1F7A09832
:100670008F2D8A95F1F723B38E2D8A95F1F79695F4
:10068000279522272795292BA898A09A812F8A950C
:10069000F1F7A0988F2D8A95F1F793B38E2D8A9557
:1006A000F1F7979599279795A898A09A812F8A9501
:1006B000F1F7A0988F2D8A95F1F783B33E2D3A95E7
:1006C000F1F79695879588278795892BA898A09A02
:1006D000912F9A95F1F7A0989F2D9A95F1F793B3E2
:1006E0003E2D3A95F1F78695979599279795982BF2
:1006F000A898A09A812F8A95F1F7A0988F2D8A95B6
:10070000F1F783B33E2D3A95F1F7969587958827B3
:100710008795892BA898A09A912F9A95F1F7A09880
:100720009F2D9A95F1F793B33E2D3A95F1F7869563
:10073000979599279795982BA898A09A812F8A9595
:10074000F1F7A0988F2D8A95F1F783B33E2D3A9556
:10075000F1F79695879588278795892BA898A09A71
:10076000912F9A95F1F7A0989F2D9A95F1F743B3A1
:100770009E2D9A95F1F78695479544274795482BE6
:10078000A898A09A812F8A95F1F7A0988F2D8A9525
:10079000F1F783B38E2D8A95F1F722952F70440FD0
:1007A000440F440F4077422B842F6AE028D0E82F73
:1007B000FF27E7FDF095E05AFF4F8081809588BBC9
:1007C000C09A20E030E0CD010197F1F72F5F3F4F55
:1007D00083E128383807B9F7842F6AE010D0E92F71
:1007E000FF27E7FDF095E05AFF4F8081809588BB99
:1007F000C0984A3114F0909A60CD90985ECD87FBF6
:10080000082E062687FD819567FD619505D00EF4BB
:10081000919507FC81950895991B79E004C0991F73
:10082000961708F0961B881F7A95C9F7809508954A
:04083000F894FFCF6A
:0A083400FC60DAF266B6BEE0FEF6E4
:00000001FF
